{
  "contractName": "Product",
  "abi": [
    {
      "inputs": [
        {
          "internalType": "uint256",
          "name": "",
          "type": "uint256"
        },
        {
          "internalType": "uint256",
          "name": "",
          "type": "uint256"
        }
      ],
      "name": "myStructs",
      "outputs": [
        {
          "internalType": "uint256",
          "name": "id",
          "type": "uint256"
        },
        {
          "internalType": "string",
          "name": "name",
          "type": "string"
        },
        {
          "internalType": "string",
          "name": "source",
          "type": "string"
        },
        {
          "internalType": "string",
          "name": "destination",
          "type": "string"
        },
        {
          "internalType": "string",
          "name": "remark",
          "type": "string"
        },
        {
          "internalType": "uint256",
          "name": "currentBlockTime",
          "type": "uint256"
        },
        {
          "internalType": "address",
          "name": "account",
          "type": "address"
        }
      ],
      "stateMutability": "view",
      "type": "function",
      "constant": true
    },
    {
      "inputs": [
        {
          "internalType": "uint256",
          "name": "_id",
          "type": "uint256"
        },
        {
          "internalType": "string",
          "name": "_name",
          "type": "string"
        },
        {
          "internalType": "string",
          "name": "_source",
          "type": "string"
        },
        {
          "internalType": "string",
          "name": "_destination",
          "type": "string"
        },
        {
          "internalType": "string",
          "name": "_remark",
          "type": "string"
        }
      ],
      "name": "add",
      "outputs": [],
      "stateMutability": "nonpayable",
      "type": "function"
    },
    {
      "inputs": [
        {
          "internalType": "uint256",
          "name": "_id",
          "type": "uint256"
        },
        {
          "internalType": "string",
          "name": "_name",
          "type": "string"
        },
        {
          "internalType": "string",
          "name": "_source",
          "type": "string"
        },
        {
          "internalType": "string",
          "name": "_destination",
          "type": "string"
        },
        {
          "internalType": "string",
          "name": "_remark",
          "type": "string"
        }
      ],
      "name": "update",
      "outputs": [],
      "stateMutability": "nonpayable",
      "type": "function"
    },
    {
      "inputs": [
        {
          "internalType": "uint256",
          "name": "_id",
          "type": "uint256"
        }
      ],
      "name": "show",
      "outputs": [
        {
          "components": [
            {
              "internalType": "uint256",
              "name": "id",
              "type": "uint256"
            },
            {
              "internalType": "string",
              "name": "name",
              "type": "string"
            },
            {
              "internalType": "string",
              "name": "source",
              "type": "string"
            },
            {
              "internalType": "string",
              "name": "destination",
              "type": "string"
            },
            {
              "internalType": "string",
              "name": "remark",
              "type": "string"
            },
            {
              "internalType": "uint256",
              "name": "currentBlockTime",
              "type": "uint256"
            },
            {
              "internalType": "address",
              "name": "account",
              "type": "address"
            }
          ],
          "internalType": "struct Product.MyStruct[]",
          "name": "",
          "type": "tuple[]"
        }
      ],
      "stateMutability": "view",
      "type": "function",
      "constant": true
    }
  ],
  "bytecode": "0x608060405234801561001057600080fd5b506112cf806100206000396000f3fe608060405234801561001057600080fd5b506004361061004c5760003560e01c8063461a4eea146100515780637a987f38146100875780638b514ed7146100a3578063e3abf585146100d3575b600080fd5b61006b60048036038101906100669190610934565b6100ef565b60405161007e9796959493929190610a54565b60405180910390f35b6100a1600480360381019061009c9190610c14565b61038e565b005b6100bd60048036038101906100b89190610cff565b6104ce565b6040516100ca9190610f07565b60405180910390f35b6100ed60048036038101906100e89190610c14565b6107f1565b005b6000602052816000526040600020818154811061010b57600080fd5b90600052602060002090600702016000915091505080600001549080600101805461013590610f58565b80601f016020809104026020016040519081016040528092919081815260200182805461016190610f58565b80156101ae5780601f10610183576101008083540402835291602001916101ae565b820191906000526020600020905b81548152906001019060200180831161019157829003601f168201915b5050505050908060020180546101c390610f58565b80601f01602080910402602001604051908101604052809291908181526020018280546101ef90610f58565b801561023c5780601f106102115761010080835404028352916020019161023c565b820191906000526020600020905b81548152906001019060200180831161021f57829003601f168201915b50505050509080600301805461025190610f58565b80601f016020809104026020016040519081016040528092919081815260200182805461027d90610f58565b80156102ca5780601f1061029f576101008083540402835291602001916102ca565b820191906000526020600020905b8154815290600101906020018083116102ad57829003601f168201915b5050505050908060040180546102df90610f58565b80601f016020809104026020016040519081016040528092919081815260200182805461030b90610f58565b80156103585780601f1061032d57610100808354040283529160200191610358565b820191906000526020600020905b81548152906001019060200180831161033b57829003601f168201915b5050505050908060050154908060060160009054906101000a900473ffffffffffffffffffffffffffffffffffffffff16905087565b6000808681526020019081526020016000206040518060e001604052808781526020018681526020018581526020018481526020018381526020014281526020013373ffffffffffffffffffffffffffffffffffffffff1681525090806001815401808255809150506001900390600052602060002090600702016000909190919091506000820151816000015560208201518160010190816104319190611135565b5060408201518160020190816104479190611135565b50606082015181600301908161045d9190611135565b5060808201518160040190816104739190611135565b5060a0820151816005015560c08201518160060160006101000a81548173ffffffffffffffffffffffffffffffffffffffff021916908373ffffffffffffffffffffffffffffffffffffffff16021790555050505050505050565b6060600080838152602001908152602001600020805480602002602001604051908101604052809291908181526020016000905b828210156107e657838290600052602060002090600702016040518060e00160405290816000820154815260200160018201805461053f90610f58565b80601f016020809104026020016040519081016040528092919081815260200182805461056b90610f58565b80156105b85780601f1061058d576101008083540402835291602001916105b8565b820191906000526020600020905b81548152906001019060200180831161059b57829003601f168201915b505050505081526020016002820180546105d190610f58565b80601f01602080910402602001604051908101604052809291908181526020018280546105fd90610f58565b801561064a5780601f1061061f5761010080835404028352916020019161064a565b820191906000526020600020905b81548152906001019060200180831161062d57829003601f168201915b5050505050815260200160038201805461066390610f58565b80601f016020809104026020016040519081016040528092919081815260200182805461068f90610f58565b80156106dc5780601f106106b1576101008083540402835291602001916106dc565b820191906000526020600020905b8154815290600101906020018083116106bf57829003601f168201915b505050505081526020016004820180546106f590610f58565b80601f016020809104026020016040519081016040528092919081815260200182805461072190610f58565b801561076e5780601f106107435761010080835404028352916020019161076e565b820191906000526020600020905b81548152906001019060200180831161075157829003601f168201915b50505050508152602001600582015481526020016006820160009054906101000a900473ffffffffffffffffffffffffffffffffffffffff1673ffffffffffffffffffffffffffffffffffffffff1673ffffffffffffffffffffffffffffffffffffffff168152505081526020019060010190610502565b505050509050919050565b60006001600080888152602001908152602001600020805490506108159190611236565b90506000806000888152602001908152602001600020828154811061083d5761083c61126a565b5b906000526020600020906007020190508581600101908161085e9190611135565b50848160020190816108709190611135565b50838160030190816108829190611135565b50828160040190816108949190611135565b50428160050181905550338160060160006101000a81548173ffffffffffffffffffffffffffffffffffffffff021916908373ffffffffffffffffffffffffffffffffffffffff16021790555050505050505050565b6000604051905090565b600080fd5b600080fd5b6000819050919050565b610911816108fe565b811461091c57600080fd5b50565b60008135905061092e81610908565b92915050565b6000806040838503121561094b5761094a6108f4565b5b60006109598582860161091f565b925050602061096a8582860161091f565b9150509250929050565b61097d816108fe565b82525050565b600081519050919050565b600082825260208201905092915050565b60005b838110156109bd5780820151818401526020810190506109a2565b60008484015250505050565b6000601f19601f8301169050919050565b60006109e582610983565b6109ef818561098e565b93506109ff81856020860161099f565b610a08816109c9565b840191505092915050565b600073ffffffffffffffffffffffffffffffffffffffff82169050919050565b6000610a3e82610a13565b9050919050565b610a4e81610a33565b82525050565b600060e082019050610a69600083018a610974565b8181036020830152610a7b81896109da565b90508181036040830152610a8f81886109da565b90508181036060830152610aa381876109da565b90508181036080830152610ab781866109da565b9050610ac660a0830185610974565b610ad360c0830184610a45565b98975050505050505050565b600080fd5b600080fd5b7f4e487b7100000000000000000000000000000000000000000000000000000000600052604160045260246000fd5b610b21826109c9565b810181811067ffffffffffffffff82111715610b4057610b3f610ae9565b5b80604052505050565b6000610b536108ea565b9050610b5f8282610b18565b919050565b600067ffffffffffffffff821115610b7f57610b7e610ae9565b5b610b88826109c9565b9050602081019050919050565b82818337600083830152505050565b6000610bb7610bb284610b64565b610b49565b905082815260208101848484011115610bd357610bd2610ae4565b5b610bde848285610b95565b509392505050565b600082601f830112610bfb57610bfa610adf565b5b8135610c0b848260208601610ba4565b91505092915050565b600080600080600060a08688031215610c3057610c2f6108f4565b5b6000610c3e8882890161091f565b955050602086013567ffffffffffffffff811115610c5f57610c5e6108f9565b5b610c6b88828901610be6565b945050604086013567ffffffffffffffff811115610c8c57610c8b6108f9565b5b610c9888828901610be6565b935050606086013567ffffffffffffffff811115610cb957610cb86108f9565b5b610cc588828901610be6565b925050608086013567ffffffffffffffff811115610ce657610ce56108f9565b5b610cf288828901610be6565b9150509295509295909350565b600060208284031215610d1557610d146108f4565b5b6000610d238482850161091f565b91505092915050565b600081519050919050565b600082825260208201905092915050565b6000819050602082019050919050565b610d61816108fe565b82525050565b600082825260208201905092915050565b6000610d8382610983565b610d8d8185610d67565b9350610d9d81856020860161099f565b610da6816109c9565b840191505092915050565b610dba81610a33565b82525050565b600060e083016000830151610dd86000860182610d58565b5060208301518482036020860152610df08282610d78565b91505060408301518482036040860152610e0a8282610d78565b91505060608301518482036060860152610e248282610d78565b91505060808301518482036080860152610e3e8282610d78565b91505060a0830151610e5360a0860182610d58565b5060c0830151610e6660c0860182610db1565b508091505092915050565b6000610e7d8383610dc0565b905092915050565b6000602082019050919050565b6000610e9d82610d2c565b610ea78185610d37565b935083602082028501610eb985610d48565b8060005b85811015610ef55784840389528151610ed68582610e71565b9450610ee183610e85565b925060208a01995050600181019050610ebd565b50829750879550505050505092915050565b60006020820190508181036000830152610f218184610e92565b905092915050565b7f4e487b7100000000000000000000000000000000000000000000000000000000600052602260045260246000fd5b60006002820490506001821680610f7057607f821691505b602082108103610f8357610f82610f29565b5b50919050565b60008190508160005260206000209050919050565b60006020601f8301049050919050565b600082821b905092915050565b600060088302610feb7fffffffffffffffffffffffffffffffffffffffffffffffffffffffffffffffff82610fae565b610ff58683610fae565b95508019841693508086168417925050509392505050565b6000819050919050565b600061103261102d611028846108fe565b61100d565b6108fe565b9050919050565b6000819050919050565b61104c83611017565b61106061105882611039565b848454610fbb565b825550505050565b600090565b611075611068565b611080818484611043565b505050565b5b818110156110a45761109960008261106d565b600181019050611086565b5050565b601f8211156110e9576110ba81610f89565b6110c384610f9e565b810160208510156110d2578190505b6110e66110de85610f9e565b830182611085565b50505b505050565b600082821c905092915050565b600061110c600019846008026110ee565b1980831691505092915050565b600061112583836110fb565b9150826002028217905092915050565b61113e82610983565b67ffffffffffffffff81111561115757611156610ae9565b5b6111618254610f58565b61116c8282856110a8565b600060209050601f83116001811461119f576000841561118d578287015190505b6111978582611119565b8655506111ff565b601f1984166111ad86610f89565b60005b828110156111d5578489015182556001820191506020850194506020810190506111b0565b868310156111f257848901516111ee601f8916826110fb565b8355505b6001600288020188555050505b505050505050565b7f4e487b7100000000000000000000000000000000000000000000000000000000600052601160045260246000fd5b6000611241826108fe565b915061124c836108fe565b925082820390508181111561126457611263611207565b5b92915050565b7f4e487b7100000000000000000000000000000000000000000000000000000000600052603260045260246000fdfea264697066735822122059bcb08c0dd734115ba2fa13cdd313dd0dd7e85d39c67a10e70efe3a255c613064736f6c63430008130033",
  "immutableReferences": {},
  "source": "// SPDX-License-Identifier: UNLICENSED\r\npragma solidity ^0.8.0;\r\n\r\n\r\ncontract Product {\r\n    struct MyStruct {\r\n        uint256 id;\r\n        string name;\r\n        string source;\r\n        string destination;\r\n        string remark;\r\n        uint256 currentBlockTime;\r\n        address account ;\r\n        \r\n        // add data here\r\n        \r\n    }\r\n    \r\n//\r\n    mapping(uint256 => MyStruct[]) public myStructs;\r\n\r\n\r\n    function add(uint256 _id, string memory _name, string memory _source, string memory _destination,string memory _remark) public {\r\n\r\n        myStructs[_id].push(MyStruct(_id, _name,_source,_destination,_remark,block.timestamp ,msg.sender));\r\n    }\r\n\r\n    function update(uint256 _id, string memory _name, string memory _source, string memory _destination,string memory _remark)  public{\r\n        \r\n        uint256 k = myStructs[_id].length - 1;\r\n        MyStruct storage myStruct = myStructs[_id][k];\r\n        myStruct.name = _name;\r\n        myStruct.source = _source;\r\n        myStruct.destination = _destination;\r\n        myStruct.remark = _remark;\r\n        myStruct.currentBlockTime = block.timestamp;\r\n        myStruct.account = msg.sender;\r\n\r\n    }\r\n\r\n    function show(uint256 _id) public view returns (MyStruct[] memory) {    \r\n        return myStructs[_id];\r\n        }\r\n}",
  "sourcePath": "C:\\Users\\SAABU\\Desktop\\Mini_Project\\web3\\contracts\\blockchain.sol",
  "compiler": {
    "name": "solc",
    "version": "0.8.19+commit.7dd6d404.Emscripten.clang"
  },
  "schemaVersion": "3.4.13",
  "updatedAt": "2023-04-04T17:24:16.988Z",
  "networkType": "ethereum",
  "devdoc": {
    "kind": "dev",
    "methods": {},
    "version": 1
  },
  "userdoc": {
    "kind": "user",
    "methods": {},
    "version": 1
  }
}